S02B00002F73747564656E74732F656D3730322F576172702D6669726D776172652F6275696C642F6B73646B23
S1130000000600201D050000450500004505000010
S113001000000000000000000000000000000000DC
S11300200000000000000000000000004505000082
S11300300000000000000000450500004505000028
S11300404505000045050000450500004505000084
S11300504505000045050000450500004505000074
S11300604F470000450500005947000045050000C2
S11300704505000045050000450500004505000054
S11300804505000045050000450500004505000044
S113009061260000792600004505000045050000A2
S11300A04505000045050000450500004505000024
S11300B04505000045050000450500004505000014
S1130400FFFFFFFFFFFFFFFFFFFFFFFFFE3DFFFFBB
S11304100448054B10B5834203D0044B002B00D095
S1130420984710BDA0FFFF1FA0FFFF1F00000000A2
S113043006480749091A8B10C90FC91810B5491085
S113044003D0044B002B00D0984710BDA0FFFF1F22
S1130450A0FFFF1F0000000010B5074C2378002BFD
S113046009D1FFF7D5FF054B002B02D0044800E06B
S113047000BF0123237010BDA0FFFF1F0000000078
S11304803C690000054B10B5002B03D00449054816
S113049000E000BFFFF7CCFF10BDC0460000000025
S11304A0A4FFFF1F3C690000402292029A1A924660
S11304B07047C046154B002B00D1114B9D46FFF7EA
S11304C0F3FF00218B460F461148124A121A00F01E
S11304D0FFF80C4B002B00D098470B4B002B00D09F
S11304E098470020002104000D000B4800F02EF86E
S11304F000F064F82000290002F0BAF900F034F8A2
S113050000000800000000000000000000060020B9
S1130510A0FFFF1FE40200209505000072B6064804
S11305200649074A02600A6004F01CF904F05CF909
S113053062B6FFF7BFFF000080E100E080E200E068
S1130540FFFFFFFF004800474505000010B501000C
S113055000230022002000F019FA10BD014B186896
S11305607047C04600FEFF1F084B10B50400002B67
S113057002D0002100F078FA054B1868836A002B3A
S113058000D09847200002F03DF8C046690A0000F8
S1130590F465000070B5074D074C641BA41005D02A
S11305A0013CA300EB589847002CF9D106F0CCF994
S11305B070BDC046606900006469000070B50C4DF0
S11305C00C4E761BB61005D0002408CD0134984794
S11305D0A642FAD106F0B2F9074D084E761BB610C2
S11305E005D0002408CD01349847A642FAD170BD45
S11305F05C6900005C6900005C69000060690000DF
S113060010B5034B0100186800F00CF910BDC0468A
S113061000FEFF1F10B5034B0100186800F0ACF892
S113062010BDC04600FEFF1FF0B5C64600B50F2A38
S113063043D90B00032603431E400C000300002E85
S113064040D11500103D2D09AC462D01A84680442B
S113065000E03B00676825685F60E7681D60DF6055
S11306601F00A56810379D6010344345F1D16546DD
S11306700F230C2401352D01491913404519144247
S113068023D08C59AC5104369C1B032CF9D8032479
S1130690043B9B0801339B002240ED18C918561EE9
S11306A0002A07D0002300E02300CA5C5C1CEA5443
S11306B09E42F9D104BC9046F0BD0500561E002AA6
S11306C0F0D1F7E7561E0500ECE71A00F6E7C0463E
S11306D0F0B5050083074AD0541E002A44D0CEB298
S11306E00300032202E00135013C3DD301332E70A7
S11306F01342F8D1032C2FD9FF220A4015021543C7
S11307002A0415430F2C35D92700103F3F093E0119
S1130710B4461E001A001036664415605560956094
S1130720D5601032B242F8D10F260C2201373F01B6
S11307302640DB193700224217D03E1FB608B4000A
S1130740A4461A001C1D644420C2A242FCD1032406
S11307500136B6009B193C40002C05D0C9B21C19C7
S1130760197001339C42FBD1F0BD3400F4E714004E
S11307700300BFE72700E0E770B50500002915D0A6
S11307800C1F2368002B27DB280000F0CBF9244B37
S11307901A68002A05D0A2420CD921686018824246
S11307A024D0626028001C6000F0BEF970BDA34232
S11307B003D81A005368002BF9D111685018A042CD
S11307C01BD027D821686018834207D06360546027
S11307D0280000F0A9F9E9E7E418D5E718685B6890
S11307E084466144216063605460F1E71068526894
S11307F08446614421606260D4E720680918501877
S113080011608342E4D118685B68844661441160D6
S11308105360DDE70C2328002B6000F085F9C5E761
S1130820BCFFFF1FF8B50323CD1C9D43083506000C
S11308300C2D2AD20C25A94229D8300000F072F9D7
S11308402A4F3A68002A0AD013685B1B04D441E09B
S113085023685B1B1FD522005468002CF8D17B68E9
S1130860002B3DD02900300000F042F8431C2AD070
S11308700323C41C9C43A04205D0211A300000F07D
S113088037F8431C1FD0256010E0002DD3DA0C2369
S113089000203360F8BD0B2B05D86368A2421DD03D
S11308A0536003E014002360E4182560300000F076
S11308B03BF9200007220B30231D9043C21AE9D0D4
S11308C01B1AA350E6E70C233000336000F02CF928
S11308D00020DFE70B2BE5D8140053683B60E5E705
S11308E00021300000F004F87860BBE7BCFFFF1F74
S11308F0002370B5064C05000800236001F084FE57
S1130900431C00D070BD2368002BFBD02B60F9E79B
S1130910E002002003000A7801311A700133002A32
S1130920F9D1704710B5830727D00378002B26D060
S11309300300032102E01A78002A1CD001330B4281
S1130940F9D119680F4A104C8A188A4322420FD1F0
S1130950043319680B4A8A188A43224208D10433A3
S11309601968084A8A188A432242F1D000E0013308
S11309701A78002AFBD1181A10BD0300E1E7002001
S1130980FAE7C046FFFEFEFE80808080F0B5464652
S11309904F46D646C0B51F002F4B82B01C680500D9
S11309A00E009046002C2DD063681F2B50DC002DC8
S11309B01CD08822A0589146002834D0783282581E
S11309C094469A0091468144424649460A60012170
S11309D0624699400A43944680228A466146520000
S11309E081504946803A8F50022D16D000205A1C5F
S11309F002339B0062601E5102B01CBC90469946B3
S1130A00A246F0BD154C1C60154B002BCCD01B68C6
S1130A1001938823019AE250C6E7554684328158EF
S1130A200D438550E2E70F4B002B11D0842040008A
S1130A30FFF7E6FD00280BD08022002352008350EC
S1130A40043283504B460022E05094466368B8E772
S1130A5001204042D0E7C04650000020C4FFFF1FE1
S1130A600000000001060000F0B5DE464E46454693
S1130A7057462B4B88469B46E0B51E6883B00190D1
S1130A80002E45D088237568F7586C1E40D4013574
S1130A90AD00783375199A460AE0002F05D03B0063
S1130AA0A20080339B58434505D0043D013C2FD31D
S1130AB04346002BF1D173682A68013BA34222D03C
S1130AC000232B60002AF0D073689946002F18D0B9
S1130AD001235146A3407958194212D08220400084
S1130AE03858A1007958009018420ED101989047C7
S1130AF05B4672681B684A4501D1B342D5D01E00DB
S1130B00BEE79047F4E77460DCE708009047EFE73E
S1130B1003B03CBC90469946A246AB46F0BDC046E5
S1130B20500000207047C0467047C04602B471466A
S1130B3049084900095C49008E4402BC7047C0461C
S1130B4003B47146490840004900095E49008E44D7
S1130B5003BC704703B47146490840004900095A70
S1130B6049008E4403BC7047002243088B4274D36F
S1130B7003098B425FD3030A8B4244D3030B8B429A
S1130B8028D3030C8B420DD3FF22090212BA030CA3
S1130B908B4202D31212090265D0030B8B4219D384
S1130BA000E0090AC30B8B4201D3CB03C01A5241A4
S1130BB0830B8B4201D38B03C01A5241430B8B42EC
S1130BC001D34B03C01A5241030B8B4201D30B03D5
S1130BD0C01A5241C30A8B4201D3CB02C01A5241FC
S1130BE0830A8B4201D38B02C01A5241430A8B42BF
S1130BF001D34B02C01A5241030A8B4201D30B02A8
S1130C00C01A5241CDD2C3098B4201D3CB01C01AC1
S1130C10524183098B4201D38B01C01A52414309CB
S1130C208B4201D34B01C01A524103098B4201D3B9
S1130C300B01C01A5241C3088B4201D3CB00C01A26
S1130C40524183088B4201D38B00C01A524143089E
S1130C508B4201D34B00C01A5241411A00D20146C3
S1130C60524110467047FFE701B5002000F0F0F84C
S1130C7002BDC0460029F7D076E7704703460B4310
S1130C807FD4002243088B4274D303098B425FD381
S1130C90030A8B4244D3030B8B4228D3030C8B42AD
S1130CA00DD3FF22090212BA030C8B4202D3121293
S1130CB0090265D0030B8B4219D300E0090AC30B68
S1130CC08B4201D3CB03C01A5241830B8B4201D315
S1130CD08B03C01A5241430B8B4201D34B03C01AFE
S1130CE05241030B8B4201D30B03C01A5241C30A76
S1130CF08B4201D3CB02C01A5241830A8B4201D3E7
S1130D008B02C01A5241430A8B4201D34B02C01AD0
S1130D105241030A8B4201D30B02C01A5241CDD275
S1130D20C3098B4201D3CB01C01A524183098B42C0
S1130D3001D38B01C01A524143098B4201D34B01A9
S1130D40C01A524103098B4201D30B01C01A52410C
S1130D50C3088B4201D3CB00C01A524183088B4293
S1130D6001D38B00C01A524143088B4201D34B007C
S1130D70C01A5241411A00D20146524110467047EE
S1130D805DE0CA0F00D04942031000D340425340F3
S1130D9000229C4603098B422DD3030A8B4212D3B3
S1130DA0FC22890112BA030A8B420CD389019211E5
S1130DB08B4208D3890192118B4204D389013AD022
S1130DC0921100E08909C3098B4201D3CB01C01AF7
S1130DD0524183098B4201D38B01C01A524143090A
S1130DE08B4201D34B01C01A524103098B4201D3F8
S1130DF00B01C01A5241C3088B4201D3CB00C01A65
S1130E00524183088B4201D38B00C01A5241D9D27C
S1130E1043088B4201D34B00C01A5241411A00D2FD
S1130E200146634652415B10104601D34042002BF9
S1130E3000D54942704763465B1000D3404201B578
S1130E40002000F005F802BD0029F8D016E770472D
S1130E507047C046002B15D1002A13D1002906DBA8
S1130E6001DC002806D00020C043410802E08021B4
S1130E700906002007B4024801A14018029003BDEE
S1130E80D1FFFFFF03B4684601B5029800F01AF9D8
S1130E90019B9E4602B00CBC7047C046002B11D18A
S1130EA0002A0FD1002900D1002802D00021C94313
S1130EB0081C07B4024802A14018029003BDC046B2
S1130EC091FFFFFF03B4684601B5029800F02EF8C5
S1130ED0019B9E4602B00CBC7047C046F0B5150499
S1130EE02D0C0F0001002E00C64684460004140C8D
S1130EF0000C090C46434D43604361434019340CD4
S1130F00241800B5A54203D98020400280464144FC
S1130F10250C6D18614659437A4330044919240459
S1130F20000C2018891804BC9046F0BDF0B5574653
S1130F304E464546DE46E0B504000D00924699460D
S1130F4083B08B4230D82DD04946504601F068FA20
S1130F5029000600200001F063FA331A9846203B6A
S1130F609B4633D45A465346934042461F00534649
S1130F7093401E00AF423AD8AF4200D178E05B46BE
S1130F80A41BBD41002B00DA75E00022002300926F
S1130F90019301235A46934001930123424693400F
S1130FA0009328E08242CFD90022002300920193CB
S1130FB00C9B002B01D01C605D600098019903B06C
S1130FC03CBC90469946A246AB46F0BD424620231F
S1130FD09B1A5246DA40414613004A468A4017009B
S1130FE042461F43534693401E00AF42C4D90022D9
S1130FF00023009201934346002BD9D0FB077208CB
S11310001A4346467B080EE0AB4201D1A2420CD8FB
S1131010A41A9D41012024196D410021013E241888
S11310204D41002E06D0AB42EED9013E24196D414C
S1131030002EF8D1009801995B4600196941002BF4
S113104024DB2B005A464446D3402A00E2401C00CD
S11310505B461500002B2ADB26009E403300260049
S11310604746BE403200801A9941009001919FE7A3
S1131070A342BCD883E74246202300219B1A0022C6
S1131080009101920122DA40019286E74246202330
S11310909B1A2A0046469A402300F34044461343D1
S11310A02A00E2401C005B461500002BD4DA4246BD
S11310B02F002023260097409B1ADE403B00334339
S11310C0CDE7C046F8B5CE46474680B5914698462A
S11310D004000D0001F0B0F907000E0002000B003F
S11310E048464146FFF7FAFE241A8D41089B380012
S11310F031001C605D600CBC90469946F8BDC0464A
S1131100F0B557464E464546DE46E0B581460500F5
S11311100C03480092461F0085B0240B400DCE0FEF
S1131120002859D0874B984200D198E06B0FE40017
S11311301C4380231B0423439846834BED009B46AA
S113114000239946834400933C037B005046240BC0
S11311505B0DFF0F002B67D07A4A934218D07A496F
S1131160420F8C46E400594614438022634412041F
S1131170CB1A14439B46C200002033007B409A469E
S11311804B460F2B00D9EFE070499B00CB589F468C
S11311906F4B52469C462243E344002A00D095E01C
S11311A0494602231943894600240220E5E7002327
S11311B00024002552461B052343D207134328006D
S11311C0190005B03CBC90469946A246AB46F0BD1A
S11311D0002400255B4BEDE74B462343984600D1A2
S11311E089E0002C00D1E0E1200001F0FBF80100CF
S11311F002000B391D235B1A49461000D9400838F8
S113120084400B004D4623439846854051483C0397
S1131210831A9B460023994600937B005046240B77
S11312205B0DFF0F002B97D15246224355D0002C63
S113123000D1CAE1200001F0D5F802000B3A1D23C9
S113124001009B1A52460839DA408C401443524636
S11312508A40414B58449B46834400208DE74B46CB
S11312602343984640D108239946063B00258346EC
S1131270009369E7B246009B022BA9D0032B00D14F
S113128011E2012B93D0354A5A44002A00DC3CE198
S11312906B0700D0A7E1ED084346DB0106D54246C3
S11312A02F4B1A4090468022D2005A442D4B9A422A
S11312B08EDC4346520558075C020543240B530D4C
S11312C078E7BA46A04615000090D4E74A460323BF
S11312D01A439146032052464FE7494601231943D6
S11312E089460024012048E70C239946093BA0467F
S11312F08346009328E70423994600239B46013341
S11313000025009320E7002380249A4600250D4BF6
S113131024034FE7802341461B03194208D01C4293
S113132006D11C432403BA461500064B240B41E79F
S11313308024434624031C432403B246014B240B5C
S113134038E7C046FF07000001FCFFFFF865000016
S113135001F8FFFF0DFCFFFFF3030000FF03000093
S1131360FFFFFFFEFE070000444500D216E100D156
S113137011E101235B429C462E0040460025E344D4
S11313802302140E1C431B0C994623041F0C120247
S1131390494600920197FFF76DFC02007A430B0463
S11313A0310C804619438A420BD901235B429C4687
S11313B00919E0448C4204D88A4202D9831E984613
S11313C00919881A4946FFF755FC09048C4631046B
S11313D06646019A090C4243030031438A4204D908
S11313E00919013B8C4200D811E1891A4246009E3A
S11313F012041A43330C1F00100C9046029313047A
S11314003204160C32001B0C5A4303967B434643AA
S11314107843170CBC469B1963449E4203D980262B
S11314207602B44660441E0C301816041B04360CB5
S11314309E19814200D29CE000D197E0AE1B091AAC
S1131440B54280414042081A844200D111E1494624
S1131450FFF710FC019A0B044243310C05001943B9
S11314608A4207D90919013D8C4203D88A4201D91D
S1131470851E0919881A4946FFF7FCFB09048C46A6
S113148031046646019A090C4243030031438A42FF
S113149007D90919013B8C4203D88A4201D9831E1A
S11314A00919039E891A32002D041D43029F2B043F
S11314B01B0C5A437B439C46280C4643130CB444F0
S11314C0634478439E4203D980267602B44660443E
S11314D01E0C12041B04120C30189B18814206D3F4
S11314E002D001231D43CEE6002B00D1CBE66118C8
S11314F06E1EA14200D2A4E0814200D2C9E000D114
S1131500D9E03500EDE701256D420121891A38291A
S113151000DD4CE61F2900DC7FE01F235B429A1AA2
S11315204346D340202904D04446654A5A44944053
S113153025436A1E954107222B43150000241D40B4
S11315401A4200D1A1E00F2200241A40042A00D13B
S113155098E01A1D9A429B415B42E4181300220250
S113156000D48FE001230024002523E6B54200D3F4
S113157064E743465A1E009B9C4665441F009D42F7
S11315809B415B421B19C9188C423AD2884263D8EA
S113159060D0904652E7AA4200D9EAE64346DE0705
S11315A058086B081E43ED07EAE6484600F01AFFA8
S11315B001000200153120321C2900DC1AE64B46DA
S11315C0083883400025984620E600F00BFF03000E
S11315D01A00153220301C2A00DC30E65446083B41
S11315E000229C4035E60F232B40042B00D152E609
S11315F005235B42AB429B4104355B42ED089844B2
S11316004AE68C42C5D1AF42C0D9904616E78A4219
S113161000D8EAE6831E0919E7E62A4A28005A4454
S1131620434695409340C8406A1E9541444603434F
S11316302B43CC405A0792D00F221A40042A88D157
S11316408DE73500814200D04BE7009A934200D0E9
S113165047E718E6AE429CD902235B429C46009BB6
S1131660E0449C4665449D429B415B421B19C9185A
S1131670E4E6154A5A44002A00DC44E70123002525
S1131680984409E665076402240BDB081D43002324
S113169090E5009E023D7200B242BF417F423C1978
S11316A009190092CEE78024434624031C432403F3
S11316B0064B240B7EE5009A9A42EAD33500C4E730
S11316C03E0400001E040000FF030000FF070000AA
S11316D0F0B557464E464546DE46E0B598460C03FF
S11316E04B000600924687B0240B5B0DCF0F002BF6
S11316F06CD0DD4A934200D186E0420FE4001443EB
S1131700802212041443D94AC500944663440093CA
S1131710002399469B46434642461E03D20F5B0074
S113172050469046360B5B0D00D178E0CE4A93428A
S11317301DD0CE49420F8C4600996344F6008C4676
S1131740164380229C44120463461643C2000020C0
S113175000930099434601318C4649467B400193EE
S11317600F2900D97EE0C24B890059588F46524652
S1131770009B324300D056E1BB4900268C466344AB
S1131780494600930223194389460220E1E7434670
S113179001933400150083465B46022B5ED0032B75
S11317A000D1F3E1012B00D018E100220024002530
S11317B0019B12052243DB071A432800110007B0DE
S11317C03CBC90469946A246AB46F0BD2500054375
S11317D000D141E1002C00D1ADE1200000F002FE77
S11317E0010002000B391D2310005B1A3100350083
S11317F008388440D94085400C439E48831A00939E
S1131800002399469B4686E70500254300D01CE14A
S1131810082200930223002491469B467BE752460C
S1131820324300D10AE1002E00D176E1300000F00D
S1131830D9FD02000B3A1D2301009B1A52460839B8
S1131840DA408E40164352468A40009B8949181A52
S113185003008C466344002000937AE700240025AB
S1131860814AA5E72F0C2D042D0C2B00110C12041A
S1131870120C53439846130028007B43994648436F
S11318804844834640460B00000C824658467B433E
S113189050440293814506D99A4680235B029946B7
S11318A0CA4453460293030C9B4643461B0400045C
S11318B01B0C9846030043440493330C99462B00B5
S11318C03604360C7343984633007B439A464B46A2
S11318D05D435F4343465544180C4019824503D980
S11318E080235B029A465744050CEB190593434643
S11318F01D042D0C00044019250C2404240C27007D
S113190057436A4390462A003B0C9A464A43614334
S1131910414451448344884503D980235B0298465B
S113192042443F040B0C3F0C0904C9192700984694
S11319304B4677435C436E435D433B0C9946A41985
S11319404C4442440395A64204D980235B02984642
S113195045440395029B3F045B441E00834280413F
S113196023049846059B3F0C4744984676188E42BC
S11319708941474440423D18A846934649428A4615
S1131980C3449F42BF4180458041039BDA4498464B
S1131990534640427F420743240C934592418A4573
S11319A089413F19DC0D049B75021D43681E854166
S11319B05346524249420A43BF184744F60D7F0238
S11319C035435A023C431543FB0100D4C1E00121D5
S11319D06A080D401543E20715436408264961442B
S11319E0002956DD6B0709D00F222A40042A05D0AE
S11319F02A1DAA42AD416D4264191500E30104D5C4
S1131A0080211E4AC900144061441D4A914200DDF0
S1131A1024E76207ED08640249051543240B4A0DC7
S1131A20C6E60197B8E6104A0320944663444A4642
S1131A30009303231A43914652468AE649460123FA
S1131A40194389460026012083E60C2200930323D0
S1131A50050091469B465EE60423994600230093C5
S1131A60013300249B4656E6FF07000001FCFFFFFC
S1131A70386600000DFCFFFFFF030000FFFFFFFEC0
S1131A80FE070000002380240025444A0193240318
S1131A908EE60120401A382800DD86E61F285BDD2B
S1131AA01F2223005242511ACB401900202803D090
S1131AB03B4A6244944025436A1E95412A000A43E6
S1131AC007210D000024154011425BD00F21002492
S1131AD01140042953D0111D914292415242A4183D
S1131AE00A0023024BD501220024002560E680234E
S1131AF01B031C4209D01E4207D133431C03434637
S1131B001500240B254A019352E680221203144344
S1131B102403224A240B01974AE600F063FC0300E5
S1131B201A00153220301C2A00DC84E65646083B95
S1131B3000229E4089E600F055FC010002001531A8
S1131B4020321C2900DC4EE634000838002584408D
S1131B5053E6009B9C4641E71249220061442E0053
S1131B608D408A40C640691E8D4132432A43C44099
S1131B705307B6D00F2111400429ACD1B1E7650752
S1131B806402240BD2081543002211E680221203BA
S1131B9014432403014A240B0AE6C046FF0700004D
S1131BA03E0400001E040000F8B557464E46454664
S1131BB0DE460400E0B51F0010000B03620F4E0068
S1131BC0CD0F5B0A39031343490AE200440F214352
S1131BD0C24C91469246C0007A008046760D520D62
S1131BE0FF0FA24200D1B4E001246740BB46BD42CE
S1131BF000D188E0B41AA446002C00DCB2E0002A2C
S1131C0000D1C5E0B54A964200D18BE2802212048D
S1131C1011436246382A00DDA1E11F2A00DD16E2E5
S1131C2020270C00BF1ABC400200A0466446B840FE
S1131C30E240444614430200501E82416046C140C3
S1131C4022435B1A49468C1AA145924152429B1A7F
S1131C50984643461B0200D417E143465B025B0AE5
S1131C6098464346002B00D16CE1404600F0BAFB95
S1131C700200083A202120004346891A9340C840B4
S1131C8094400343964200DD57E1961B711C1F29C3
S1131C9000DDCBE1202218002600521A9440904027
S1131CA0CE40CB40621E9441304398460026044304
S1131CB0630709D00F232340042B05D0231DA3421F
S1131CC0A4416442A0441C0043461B0200D4DFE04C
S1131CD0824B01369E4200D1FBE04246804BE40831
S1131CE01A401300710552075B0222431B0B490D76
S1131CF00905ED071943294310003CBC9046994659
S1131D00A246AB46F8BDB41AA446002C58DD002AFE
S1131D1000D19EE0714A964200D13BE18022120438
S1131D2011436246382A00DDC1E01F2A00DCBBE112
S1131D300C00203AD44022006446202C04D04027D2
S1131D403F1BB940084380464446611E8C411443FE
S1131D50B1E00C0004432AD0BB46BD422DD0614CF7
S1131D60A446B4446446002C5CD0941BA446002EC4
S1131D7000D015E14D461D4300D1C3E1651E012C81
S1131D8000D10CE2554EB44200D1F8E1AC460EE16C
S1131D900A00024300D136E12200013A012C00D1AD
S1131DA0C6E14E4CA44500D1F4E0944631E7012449
S1131DB06740BB46BD4200D01CE74A4CA446B4442D
S1131DC06446002C00D1CFE0941BA446002E00D121
S1131DD05CE1424EB24200D1ECE18026360433434A
S1131DE06446382C00DDB3E11F2C00DD38E22026E8
S1131DF0361B1C00B4404F46A0466446E7404446A8
S1131E003C434F46B7403E00771EBE4134436646CE
S1131E10F340C918241884429B415B42984616003B
S1131E2088444EE0304A741C144200D0D6E04A463E
S1131E301A43002E00D05BE1002A00D1A5E10A007C
S1131E40024300D0BBE14A465907D2080A43DB08E3
S1131E5027E00A00024300D174E12200013A012C78
S1131E6005D01E4CA44500D194E0944659E748445B
S1131E70484592415B1898460400524290444346B8
S1131E8002261B0200D5C4E0013E630700D011E71F
S1131E904346B4465907E2080A43DB080F498C4518
S1131EA040D061461B0349051B0B490D20E7014344
S1131EB00C00611E8C414C444C4592415242904668
S1131EC0984443461B02E0D5044B01369E4200D0A1
S1131ED09FE03100002300220AE7C046FF0700000C
S1131EE0FFFF7FFF01F8FFFFFE070000002A00D17B
S1131EF060E10A0002434DD04A465C07D2082243FF
S1131F008024DB082403234207D0CE08264204D1D0
S1131F105D463300C20849070A43510FD200D20874
S1131F2049070A431100194300D1C8E1802109037C
S1131F300B431B03D5491B0BDAE6D549B61A0B40F4
S1131F409846B5E6200000F04DFA020018321F2A28
S1131F5000DC8FE6230008388340002492E608431F
S1131F600200501E82416DE6CA4C721C224200D00F
S1131F70ADE04A461A43002EB8D1002A00D158E1F8
S1131F800A00024300D059E14A465907D2080A43DD
S1131F90DB0886E74A465907D2080A43DB08C1E74B
S1131FA0BA4DAA4200D11EE180252D042B4364467C
S1131FB0382C5DDC1F2C00DDD0E0202567462D1B6E
S1131FC04E461C00FE40AC4034434E46AE40350005
S1131FD0FB406E1EB541C91A2C434EE04A46141A02
S1131FE0A1459241524290465F1A3A004746D21B9D
S1131FF09046120200D58BE04246224300D030E6E0
S1132000002300254DE74A465907D2080A43DB0856
S113201044E742469E4B61081A40130001221440D3
S11320200C43DA075B089846144341E61A001F3E46
S1132030F2401600202903D04022511A8B401C4341
S1132040621E944100233443984600261DE70C0089
S1132050203AD44022006446202C04D040273F1B61
S1132060B940084380464446611E8C412243E9E559
S11320704C4623431C00631E9C41041BA0429B410D
S11320805B42CB1A98465D461600E2E54E461E4377
S113209000D1AEE0661E012C00D1FDE07B4FBC42B6
S11320A000D107E1B4469BE664462022121B0C00D3
S11320B0944007009040A0466446421E9041624608
S11320C0E7404446D1403C4304435B18F3E66F4C7D
S11320D0A24200D1D5E048445B18484589414942B1
S11320E05B18DC0740085B08984616000443CCE6FE
S11320F0002A00D082E00A00024340D18023002558
S11321001B0313E74B07C2081A435D46CB08C5E619
S11321104A46841AA0429241CB1A52429B1A9846CC
S11321205D469EE54A465907D2080A43DB08F9E6AC
S11321304A46141AA14592415B1A52429B1A984688
S1132140012686E54A465907D2080A43DB08A5E674
S11321504C4623431C00631E9C415BE665461E00FF
S1132160203DEE40202C05D040252D1BAB404C4695
S11321701C43A2465446631E9C4134437DE74B07EF
S1132180C2081A435D46CB08CCE60A00024300D1DC
S113219036E74B07C2081A435D46CB0881E64A4638
S11321A0841AA0429241CB1A52429B1A98465D4629
S11321B001264EE54B07C2081A43CB08B2E64A464D
S11321C0141AA14592415F1A5242BA1A9046120259
S11321D06BD54A46841AA0429241CB1A52429B1AAA
S11321E098465D4664E54B07C2081A435D46CB0832
S11321F098E64B07C2081A43CB084FE60A0002438D
S113220090D04A465C07D20814438022DB081203AC
S1132210134208D0CE08164205D1C0084907084326
S113222004005D463300610FE2004907D2080A4307
S113223078E64B07C2081A43CB0832E648445B18D9
S113224048459241984652429044434604001B023A
S113225000D41AE642460E4B01261A40904614E674
S113226066461F00203EF740202C05D04026361B32
S1132270B3404C461C43A2465446631E9C413C4317
S1132280C8E511000023002232E5C046FF07000024
S1132290FFFF7FFFFE0700004A4614188442924164
S11322A05B18984652429044E9E54246224300D1E5
S11322B0A6E6EAE54B07C2081A43CB0832E6002239
S11322C00149130014E5C046FF0700000A0030B5B9
S11322D0134C530009030500090B00205B0DD20FBA
S11322E0A34204DD0F48834202DD0F4BD01830BDFA
S11322F08020400301430D48C01A1F2808DD0C4804
S1132300C31AD9400B005842002AF0D11800EEE756
S1132310084CC540A446634499400B002B43F2E7A4
S1132320FE0300001D040000FFFFFF7F33040000D4
S113233013040000EDFBFFFF70B5002816D0C3178F
S1132340C5185D40C40F280000F04CF8114A121A59
S11323500A2816DC03002E0015339E400B23181A9E
S1132360C54053052D032D0B5B0D03E00024002312
S1132370002500261B052B43E407234330001900E6
S113238070BD0B38854053052D0300262D0B5B0DC6
S1132390F0E7C0461E04000010B5041E10D000F083
S11323A021F80F4B1B1A0A2811DC0B222100121AE8
S11323B0D14015300A035B058440120B5B0D01E02C
S11323C0002300221B0513432000190010BD220026
S11323D00B3882405B0512030024120B5B0DF1E7FE
S11323E01E0400001C2101231B04984201D3000C8D
S11323F010391B0A984201D3000A08391B09984274
S113240001D30009043902A2105C40187047C04689
S113241004030202010101010000000000000000A9
S113242010B5002903D1FFF7DDFF203002E0081CBE
S1132430FFF7D8FF10BDC046F0B557464E46454697
S1132440DE46E0B50F001900002306009846100090
S113245083B0002F07DA33003C0000275E42A74117
S113246001235B429846002907DA4346DB430C000C
S11324709846030000215842A14134003D008246A1
S11324808946B9426AD867D049465046FFF7C8FF23
S1132490834639003000FFF7C3FF5B461B1A9C4696
S11324A0203B9B466BD458465146814060460B0006
S11324B0514681400A00BB4200D972E0BB4200D1C0
S11324C079E034003D005946A41A9D41002900DA00
S11324D074E00021002001260090019159468E40AD
S11324E00196614601268E406146009600295FD020
S11324F0D90756080E435F086146012200230CE009
S1132500AF4201D1A6420AD8A41BBD4124196D4192
S11325100139A4185D41002906D0AF42F0D9013930
S113252024196D410029F8D1009801995B460019DE
S11325306941002B4DDB2E002C00DE406346DC405D
S11325405B46002B55DB34009C4023006446A640C8
S11325503200801A994103E0B04295D9002000214D
S11325604346002B04D003000C0000215842A14133
S113257003B03CBC90469946A246AB46F0BD6246C9
S113258048462023514690409B1AD94003000091AD
S1132590009960460B43514681400A00BB4200D873
S11325A08CE70021002000900191614600299FD111
S11325B000980199D4E7B142F3D882E76146202616
S11325C00127761A00200021F7400090019101971D
S11325D087E7624620239B1A2A009A4026001300AC
S11325E06246D6402C001E436346DC405B46002B0B
S11325F0A9DA62462023350094409B1ADD4023006B
S11326002B43A3E7FEE7C0460A4A0300116810B54E
S1132610002901D10849116010680849C3188B4288
S113262006D9FDF79BFF0C2303600120404210BD37
S11326301360FCE754000020E8020020E8020020B8
S1132640837802209842804140427047437A0020B8
S1132650013B012B03D90B78013001330B70704718
S113266010B5002003F0F0FB002803D0002108007F
S113267003F0DEFB10BD0000024A1368013313604F
S11326807047C0469C00002037B5002002F010FBC4
S1132690C02300240D4A9B0013600D4A0D4D1360A6
S11326A00D4A200013600D4B2C716C71AC711A68CB
S11326B0FA239B0053430A492B6003F013FC2900BF
S11326C0200001AA03F050FC37BDC04618901454F2
S11326D01C901454F800002000A0145480FEFF1F26
S11326E0C800002010B5002002F0E7FA8023054A54
S11326F09B001360044A00200449136002F044FE66
S113270010BDC0460CA0145410A01454A000002006
S11327100023364A70B51360354A01201360354AE8
S11327200133FF331360344A34491360344A13606D
S1132730344A1360344A1360344A1360344A1360D1
S1132740344A14782500054004424DD00B603249C8
S113275032480B60002101603148016031490B604F
S113276031490B6031490B6031490B6031490B60D1
S113277031490B601378DB0703D50220FF3002F0E8
S113278019FD092002F024FD0C2002F021FD052092
S113279002F01EFD082002F01BFD0620FF3002F0AF
S11327A017FD0E20FF3002F013FD8320400002F0DD
S11327B00FFD0820FF3002F00BFD0C20FF3002F06B
S11327C0F9FC8220400002F003FD0420FF3002F0F7
S11327D0FFFC072002F0FCFC062002F0F9FC80203C
S11327E0400002F0F5FC70BD0D60B0E70C9014548D
S11327F010901454149014541890145404A01454A5
S11328001C90145420901454249014543090145454
S113281000A014547CFEFF1F08A014540CA01454F0
S113282010A0145414A0145418A014541CA014542C
S113283028A014542CA0145434A0145410B5092006
S113284002F0C6FC10BD10B50C2002F0C1FC10BD96
S113285010B5FFF7F3FFFFF7F6FF8320400002F007
S1132860A9FC024B186802F07CF810BD84FEFF1F1F
S1132870F0B5B3B021AC072200212000FDF728FFFA
S1132880F04A01272692032211AB299313AB2A9312
S113289015AB2C9319AB2E931BAB2F931DAB30931D
S11328A01FAB17AE0FA90020319326AB1A712891E4
S11328B0109327702B942D9602F0F2F9380002F051
S11328C0EFF98021E04B0902196002F069F8002356
S11328D000971A001900180001F03CFDDB490020A4
S11328E001F02CFDC82002F03CF8D949002001F089
S11328F025FDC82002F035F8D649002001F01EFD60
S1132900C82002F02EF8D44A3B000221D34802F03A
S11329106BF83900380002F073F8002003F0D2F9A4
S11329206C210025CE4B280023930AAB5B181D8035
S113293002310AAB5B1823A91D70249703F0EEF94A
S11329403A0029000FA8FDF7C3FE3220219B0AA9F3
S11329501593A2880A86A27909180A7003220638F8
S11329600AA909180A701793A2880AA9B280A27941
S11329700A38B2710522327002261193A2880A84A1
S1132980A27909180A700AAA16771393A2880AA9C9
S11329900A85A279083009180A70042206380AA99F
S11329A009180A701993A2881C300AA909180A8008
S11329B0A27980190AA909180A70082206380AA9F6
S11329C009180A701B93A2880C300AA909180A80F6
S11329D0A27980190AA909180A70092106380AAAD5
S11329E0121811701D93A3880C300AAA12181380B0
S11329F0A37980190AAA121813704C220A240AAB6C
S1132A009B181C7008320AAB9B181D7010AA3B005F
S1132A1029A802F09BF92900300000F03BFA914903
S1132A20914802F0ADFBFFF773FE0820FF3002F07F
S1132A30C1FBC82001F095FF0820FF3002F0C8FB5D
S1132A40C82001F08EFF0820FF3002F0B3FBC8203D
S1132A5001F087FF0820FF3002F0BAFBC82001F024
S1132A6080FF0820FF3002F0A5FBC82001F079FFA9
S1132A700820FF3002F0ACFB7C49772000F0B8FF5F
S1132A80FFF7E6FE2800FFF72DFE80232A001B0235
S1132A902421380001F000F800F0F6FE00F0C2FE38
S1132AA000F032FE64230022059300230892099368
S1132AB00A9506950797049480210020090201F0E5
S1132AC09BF80A9B312B00DD67E1694B00201B68F2
S1132AD00C9300230D930C990D9A089B099C5B1889
S1132AE0544164491A0008930994230001F023FE19
S1132AF0FA24614B614F1A881B88E400A3429B416E
S1132B00974292415E495F4E086852425B421343CA
S1132B108642924152421A432B0009685A4C059846
S1132B208C426B4127211A43059BDB0F81426B4189
S1132B301A43D2B2002A0BD0069A079B5340079A35
S1132B40134205D000F046FA00F0DEFD079B069321
S1132B50494A138810884A4A9BB2116880B28C464D
S1132B6011682A009F426A41FA272B00FF00B842ED
S1132B706B4160461A402B0086426B418C42A44153
S1132B801340059A64421C400123272A00DC0023D9
S1132B901C4209D0069B079A134205D000F042FE5E
S1132BA000F0B2FD00230693334E6421308880B2D6
S1132BB0FDF7DAFF049980B2FEF75CF83031CCB24D
S1132BC0FA213088890080B2FDF7CEFF049980B2E3
S1132BD0FEF750F8069B3031CEB20295012B00D09F
S1132BE01DE11B33019500930E3B342224200799E9
S1132BF000F05DFD32002420079900F03BFA22002A
S1132C002C20079900F036FAFA211D4E890030680D
S1132C10FDF7AAFF0499FEF72DF830313068CCB2E5
S1132C201A49FDF7A1FF0499FEF724F8069B3031F9
S1132C30CEB20295012B00D0EDE01B330195009339
S1132C4026E0C0464D260000D4020020786600002D
S1132C50936600009966000064FEFF1F88FFFF1F53
S1132C60E007010098FEFF1F88FEFF1F8C00002074
S1132C7058000020A066000060000020280A000020
S1132C805C000020701101003F9C00001027000030
S1132C90023333221121242000F009FD32001121D6
S1132CA0242000F0E7F9220011212C2000F0E2F9A1
S1132CB004990598FEF7C8F830310598CCB2049908
S1132CC0FDF7DCFF0499FEF7BFF830310598CEB26A
S1132CD06421FDF7D3FF0499FEF7B6F8069B303163
S1132CE0CFB20295012B00D091E01B3301950093E4
S1132CF0123353222121242000F0D9FC3A0021214F
S1132D00242000F0B7F9320021212C2000F0B2F980
S1132D1022002121342000F0ADF9FA21424F89002C
S1132D203868FDF721FF0499FDF7A4FF30313868B6
S1132D30CCB23E49FDF718FF0499FDF79BFF3031F3
S1132D403868CEB23A49FDF70FFF0499FDF792FFB8
S1132D50069B3031CFB2012B54D11C23029501952F
S1132D60009322333B223121242000F0A0FC3A00BE
S1132D703121242000F07EF9320031212C2000F092
S1132D8079F922003121342000F074F9294801F046
S1132D90E8FD0A9B01330A938EE60A9B322B0CD181
S1132DA00898099932220023FEF778F80200224994
S1132DB00B90002001F0BFFC9AE664211F4B0591A3
S1132DC01A680B998A421AD21868FFF7E5FA0600C6
S1132DD00B980F00FFF7B0FA02000B003000390027
S1132DE0FEF78EF90022164BFEF772FCFFF76EFA1F
S1132DF00590272803DC0020124901F09FFA059A68
S1132E001149D6E71C23029501930095A9E71C23D9
S1132E10009501936CE71C230095019338E71C236C
S1132E2000950193E0E6C046C4000020102700008E
S1132E30A086010088130000B66600005800002038
S1132E4000005940C9660000EC6600001FB504008C
S1132E5001A9002002F08AFF694601A802F0C4FE1D
S1132E60009B68461C1901A9009402F045FE01224A
S1132E7001A9002002F0A6FF1FBD00000022034BA1
S1132E801A608022024B1206DA67704700A01C58B1
S1132E9004E100E070B50D000A2408281CD8FDF7F1
S1132EA045FE051D2A3F54676C6F5C0002F0E4F890
S1132EB00524012810D0FFF7E1FF2800FFF7C6FF23
S1132EC00021080001F064FF01210400002001F04A
S1132ED097FD002C22D10024200070BD02F0CCF814
S1132EE006240128F8D0FFF7C9FF2800FFF7AEFF3A
S1132EF000210120E6E702F0BFF808240128EBD006
S1132F0001F0FCFD002803D00121002001F078FD30
S1132F100021022001F03CFF0028DCD00924DBE77B
S1132F2002F0AAF807240028D6D0FFF7A7FF28004C
S1132F30FFF78CFF0021032001F02AFF040002F0B8
S1132F409BF801210028C4D1C1E7FFF797FF2800AF
S1132F50FFF77CFF00210420EEE70021082001F0A8
S1132F6017FF041EDAD10121080001F049FDB3E77F
S1132F700021052001F00CFFD0E700210620F9E72D
S1132F8000210720F6E7000037B50E25FF350400C1
S1132F90280002F00FF90A2001F0E3FC280002F0F7
S1132FA017F90C2002F014F9FA23084A9B00147054
S1132FB000210193012308000093054B03F030F82E
S1132FC00400280002F0F6F820003EBD01010020B4
S1132FD00001002010B52520FFF7D6FF0020FFF7E1
S1132FE0D3FF0020FFF7D0FF5F20FFF7CDFF3F2086
S1132FF0FFF7CAFF2220FFF7C7FF0020FFF7C4FF37
S11330000020FFF7C1FF5F20FFF7BEFF3F20FFF75F
S1133010BBFF1C20FFF7B8FF0020FFF7B5FF00201F
S1133020FFF7B2FF1C20FFF7AFFF0020FFF7ACFF54
S11330300020FFF7A9FF10BDF8B507000E0015002A
S11330401C002120FFF7A0FFF8B2FFF79DFFF0B2AC
S1133050FFF79AFFE8B2FFF797FFE0B2FFF794FF9C
S11330600020FFF791FF0020FFF78EFF1C20FFF7E1
S11330708BFFF8BDF7B5253A07000E001000542A5F
S113308000D997E0FDF766FD710296009600960060
S11330909600960096009600A90264029600E50147
S11330A014011A013901510162017F01A001AA0131
S11330B0C701E901960096009600960096009600D6
S11330C096009600F301960096009600AD021A024F
S11330D09600960096009600960096009600E702E9
S11330E0960096009600970096009600960096002B
S11330F096009600960096009600070296009600A9
S1133100CC009600960036026F009600960096005A
S11331102C029600FE029600550096009600A2002E
S11331209600C000CC02F100FD00960096009600C7
S1133130490235000731BC1D0B000D362200380052
S11331400835FFF779FF33003A0029003800FFF70C
S113315073FFF81C330002002900FFF76DFF3300F2
S113316022002900A2E0BC1D07310B002200380018
S1133170FFF762FF33003500083300930A352B0054
S1133180220020000099FFF757FF7B1C0D36290011
S11331900193781D2B007A1CFFF74EFF33003A0091
S11331A038000099FFF748FF3300220031000198EE
S11331B0FFF742FFF7BD0B003800BA1DFFF73CFFD5
S11331C03300F81C02000D33711CF1E70B00CC1D19
S11331D021003A0038001133FFF72EFFBD1D7B1C80
S11331E021002A000093781C2300FFF725FF3100FB
S11331F0063423002A0028000831FFF71DFF2300AE
S1133200009A781D2100D3E707310B003800BA1D5E
S1133210FFF712FF330031000D3308313A00D1E0DB
S11332200D0034000A357B1D0D3429003A0000934B
S1133230781D2B00FFF700FF29002300BD1D3A0075
S11332403800FFF7F9FE073623002A002100380072
S1133250FFF7F2FE33002A0021002800FFF7ECFEFE
S113326033003A0031000098A2E70B00F81C02007A
S11332700D330431FFF7E0FEF11D0B007A1D781CBD
S113328096E70D00CB1D0D353A0038000093073149
S11332902B00BC1DFFF7D0FE2B0029002200781C58
S11332A0FFF7CAFE3100009B0C31220020007FE7AB
S11332B00B00B81D0D330200310079E7BC1DB51DAC
S11332C00B0022003800FFF7B7FE2B00220020007D
S11332D0711CFFF7B1FE2B0029003A000735781D59
S11332E0FFF7AAFE2B003A003800F11DFFF7A4FEF9
S11332F02B0022002900781C5AE70C00B81D0D345D
S1133300020023007D1DFFF797FE33003A003100D1
S11333102800FFF791FEB11D0B002A003800FFF7CB
S11333208BFE23002A0021004CE00B00B81D020094
S11333300D33B41DFFF780FE23003A002100781DF1
S1133340FFF77AFE23003A0031003BE03500BC1D54
S11333500B0022003800FFF76FFEB11D0B000D3586
S113336022003800FFF768FE2B00220029003800F5
S1133370FFF762FE2B00F11D22002000FFF75CFE28
S1133380731D711C4AE70D000D353A0038002B00FF
S1133390FFF752FE3300BC1D220020000C33F11D48
S11333A0FFF74AFE0137B11D0B0022003800FFF77A
S11333B043FE3300220031003800FFF73DFE2B00AE
S11333C0220029003800F3E6BC1D0B00220038005F
S11333D0FFF732FE3300711C0D3366E77D1D0B00D1
S11333E02A00781CFFF728FEB11D0B002A003400C8
S11333F0781C0D34FFF720FE23002A002100781CDE
S1133400FFF71AFE230038003A003100FFF714FEDC
S11334102300B81D4FE77D1C0B00B41D28007A1D46
S1133420FFF70AFE2300210028007A1DFFF704FE9F
S113343033000D33190028007A1D0093FFF7FCFDBB
S1133440230038003A003100FFF7F6FD009BB81D59
S113345031E77D1D0B002A00C9E707310B003A0054
S11334603800FFF7E9FD31000D310B00D6E60C0002
S11334700D343A0038007D1C23000637FFF7DCFDCD
S113348033003A0031002800FFF7D6FD23003A004C
S1133490210028008CE63D1D06370B00B41C3A00C1
S11334A02800FFF7C9FD23003A0021002800FFF798
S11334B0C3FD23002A003100280041E70D000D352B
S11334C0BC1D2B003A003800FFF7B6FD2B0022008C
S11334D031002000FFF7B0FDB11D0B00220071E7A1
S11334E00B00033707313A0038000D33FFF7A4FD12
S11334F0711DBAE70C00BD1D0D34073623002A00E8
S11335002800FFF799FD33003A0031002800FFF747
S113351093FD23003A00310000E70D00CB1D0D356B
S11335203A003800009307312B00BC1DFFF784FDDF
S113353011362B00220029003800FFF77DFD3300EF
S1133540220000992000FFF777FD33003A0065E080
S11335500C000D360C3433003A0038002100FFF71C
S11335606BFD781C330002004CE6BC1CB51C0B0040
S113357022003800FFF760FD2B00220029003800EC
S1133580FFF75AFD2B003A0031003800FFF754FDD5
S11335902B00220020003100FFF74EFD33003400E1
S11335A00B33BD1D0D3419002A00381D0093FFF79D
S11335B043FD23002A002100381DFFF73DFD3A1D7D
S11335C0100023000099FFF737FD23002A0028008C
S11335D00099FFF731FD3300A4E607310B00BA1D53
S11335E0F0E63500BC1D0D350B0022003800FFF756
S11335F023FD711C2B003A003800FFF71DFD073630
S11336002B0022002900781CFFF716FD330022004E
S113361029002000FFF710FD3300FA1C310045E6B5
S11336200731BC1D0B00220038003500FFF704FDF4
S113363031000A352B003A0038000831FFF7FCFC52
S11336400D362B00220029003800FFF7F5FC33006B
S11336502200290076E70B00BC1D3A0038000D3328
S1133660FFF7EAFCB51D3300220031003800FFF7F4
S1133670E3FC2B00220031002000FFF7DDFC2B00CF
S11336803A006EE50D000D352B003A003800FFF7C7
S1133690D3FC33000A330093BC1D22000099F31DB0
S11336A03800FFF7C9FC2B00220000998AE6F8B520
S11336B007000E0015001C002220FFF765FCF8B27D
S11336C0FFF762FCF0B2FFF75FFCE8B2FFF75CFCC7
S11336D0E0B2FFF759FC069BDEB23000FFF754FC62
S11336E0079BDDB22800FFF74FFC089BDCB22000EB
S11336F0FFF74AFC3000FFF747FC2800FFF744FCC3
S11337002000FFF741FCF8BD30B58FB008AD0622AC
S113371028003C49FCF788FF0024E0002A5D0121D1
S113372001300134FFF7A6FC062CF6D102AD0522C8
S113373028003549FCF778FF0024E0002A5D0121C8
S113374024300134FFF796FC052CF6D104AD220099
S113375028002E49FCF768FF0024E0002A5D1121AF
S113376001300134FFF786FC052CF6D10024284BE8
S113377000936B46E000E25C112124300134FFF732
S113378079FC042CF5D106AD052228002149FCF76B
S11337904BFF0024E0002A5D212101300134FFF7B2
S11337A069FC052CF6D100241B4B019301ABE0000E
S11337B0E25C212124300134FFF75CFC042CF5D1B8
S11337C00AAD062228001549FCF72EFF0024E0006C
S11337D02A5D312101300134FFF74CFC062CF6D16F
S11337E00CAD072228000E49FCF71EFF0024E00060
S11337F02A5D312124300134FFF73CFC072CF6D13B
S11338000FB030BDFC6600000267000007670000CF
S1133810303025000C6700003030300011670000A4
S11338201767000010B52520FFF7AEFB0020FFF757
S1133830ABFB0020FFF7A8FB5F20FFF7A5FB3F20B1
S1133840FFF7A2FB2220FFF79FFB0020FFF79CFB62
S11338500020FFF799FB5F20FFF796FB3F20FFF75F
S113386093FB0020FFF790FB1C20FFF78DFB00204B
S1133870FFF78AFB0020FFF787FB1C20FFF784FB80
S11338800020FFF781FB10BDC02310B58024534AEC
S11338909B001360524A64001360FEF7F5FE514B1F
S11338A020001C60504B1C60504B1C6001F082FCDB
S11338B0642001F056F8200001F08AFC642001F035
S11338C050F8200001F076FC642001F04AF8AE20A4
S11338D0FFF75AFBA020FFF757FB7220FFF754FBBA
S11338E0A120FFF751FB0020FFF74EFBA220FFF7BA
S11338F04BFB0020FFF748FBA420FFF745FBA82063
S1133900FFF742FB3F20FFF73FFBAD20FFF73CFBF7
S11339108E20FFF739FBB020FFF736FB0B20FFF7B3
S113392033FBB120FFF730FB3120FFF72DFBB32031
S1133930FFF72AFBF020FFF727FB8A20FFF724FB81
S11339406420FFF721FB8B20FFF71EFB7820FFF795
S11339501BFB8A20FFF718FB6420FFF715FBBB2035
S1133960FFF712FB3A20FFF70FFBBE20FFF70CFB1B
S11339703E20FFF709FB8720FFF706FB0620FFF731
S113398003FB8120FFF700FB9120FFF7FDFA822063
S1133990FFF7FAFAFF20FFF7F7FA8320FFF7F4FAAC
S11339A07D20FFF7F1FAAF20FFF7EEFA2620FFF7AC
S11339B0EBFA0120FFF7E8FA2520FFF7E5FA0020EB
S11339C0FFF7E2FA0020FFF7DFFA5F20FFF7DCFAE7
S11339D03F20FFF7D9FA002010BDC04620901454B0
S11339E02490145434A014543090145400A014544B
S11339F0032308704B6070470B0000B50C4A89B074
S1133A00127806A90A800B4A12684A6005AA107047
S1133A1004A80370084B1B68009002930123002044
S1133A20019301F0EFFD002800D0022009B000BD91
S1133A308C00002074FEFF1F78FEFF1F00B589B0C4
S1133A406946104A0300127803200A75F22B16D82F
S1133A500D4A06A9127800200A800C4A12684A60AE
S1133A606A4613750A4B0B4A1B68009202930123A2
S1133A7005AA019301F0D3FD002800D0022009B06B
S1133A8000BDC0461E6700008C00002074FEFF1FAE
S1133A9078FEFF1F94000020F0B514008BB01A00CC
S1133AA00F00010072201D00FFF7A6FF2A00390055
S1133AB005907420FFF7A0FF2100002406902A003F
S1133AC07020FFF799FF2600079020007738012126
S1133AD0C0B2FFF7B3FF454B454A1B7A0643DBB23E
S1133AE013550134F6B2192CEFD1200038380121D6
S1133AF0C0B2FFF7A3FF3D4F3D4B3A7A0643D2B223
S1133B001A550134F6B22A2CEFD19A1DD07F012127
S1133B10C2B201925A1DD47F1A1DD07F07332402EA
S1133B200443D87F24B2C3B202200293FFF786FF76
S1133B30397A0020CBB201210393FFF77FFF08906D
S1133B40397A2A00CBB2712010210493FFF754FF75
S1133B502A00099059216420FFF74EFF0700A02096
S1133B60244B4000E41814216043FDF787F8C82370
S1133B709B030A21C018FDF781F804246B461C57E7
S1133B80C4239B00E41844436B4608203221185692
S1133B90FDF774F8039B64100002191D2018FDF74B
S1133BA06DF88321049B594380235B02C918FDF7F8
S1133BB065F803002220FA3B584364213230FDF7B4
S1133BC05DF82A00C1B25A20FFF716FF069A059B3A
S1133BD01343079A1A43089B164333431E00099B59
S1133BE033431F433843C0B20BB0F0BD8C000020F8
S1133BF06200002099590200F0B5FB4CBDB0029060
S1133C00E31CDF7FA31CDE7FA3780A0061781B021C
S1133C100B431BB20693E578A17963790902194332
S1133C200A91237AE1791B020B431BB20B93637A4B
S1133C3001345BB20C93E37AA17A1B020B431BB2EF
S1133C400D93637B217B1B020B431BB20E93E37B1F
S1133C50FFB25BB20F93A37B3F025BB21093E37C92
S1133C60A17C1B020B431BB21193637D217D1B02BC
S1133C700B430F211BB21293A07DF6B2C3B2139370
S1133C80A07E637E00010B4003430793207E637E86
S1133C9000011B0903430893E07E163143B21493D9
S1133CA0207F3E4343B21593607F760043B2169360
S1133CB0A07FEDB2C3B21793E07F43B27420189390
S1133CC0FFF79AFE012103902220FFF7B7FEC74CAD
S1133CD01990237A0121DBB223200493FFF7AEFE6F
S1133CE01A90237A0121DBB224200593FFF7A6FE64
S1133CF01B90237ADAB20992049A1B091403059AD9
S1133D00120114431C43E410A41BE717FB076008CB
S1133D10184302003B003900FDF7E0F80B05000BE7
S1133D2018436BB21A010913DB17FDF7D7F8069B8A
S1133D30220005000E000698D9173B00FDF7CEF8C7
S1133D4005244905C00AB604AD0B0843354343199D
S1133D505C43803406932412A54B22B21A801A883D
S1133D601998039B12B218431A9B034318001B9B18
S1133D700343D8B2002800D170E100209D4900F02F
S1133D80DDFA01212520FFF759FE984D05902B7A85
S1133D900121DBB226200493FFF750FE0990169808
S1133DA064216043FCF76AFF604364218011FCF7DF
S1133DB065FF0600159864216043FCF75FFF8023CC
S1133DC03618DB01F618089B2F7A73439E12049B66
S1133DD0FFB21802079B38431D01451B1498642148
S1133DE06043FCF74BFF40102D1A18986421604380
S1133DF0FCF744FF6E430500179B7F4AD8012D183A
S1133E00B01340432D11801245436D10AE19FA25AD
S1133E10B612AD006E43794B36131E601968914299
S1133E2000DC47E11A60754B09991A68059B0B433E
S1133E3003990B43D8B2002800D141E100206D4919
S1133E4000F07CFA01211F20FFF7F8FD674D079071
S1133E502B7A0121DBB220200493FFF7EFFD01212F
S1133E60089021202C7AFFF7E9FD09902A7A802016
S1133E70D3B20593069B0F995D10614B0002ED18B8
S1133E80AE107643F31259430E9B89106B435B00CB
S1133E905B180B9976134D430C996D1049017143CE
S1133EA0C9104919891409180A98E4B24843C1137E
S1133EB0049825010003284312090243802040038B
S1133EC0504D821A0D982A6000049B102A68C3186A
S1133ED01B13D21A4C4B53432B6080232A68DB05F7
S1133EE028689A4200DA13E1FCF7C8FE400045490D
S1133EF028600F680A680B680E6806930D680868E6
S1133F000B68FF109C46D2107A43129F52135743FA
S1133F10069B3A13119F9B105F4336122D126E437A
S1133F207B13D21803127343139858434314D218C3
S1133F30109BDB01D218121162440A600A68079BC5
S1133F4008990B43039919430B0009991943C8B203
S1133F50002800D1E0E00020264900F0EFF901211B
S1133F602A20FFF76BFD214C0290257A01212B209A
S1133F70FFF764FD237AEDB2DEB2AD009B091D4369
S1133F80012104200395FFF759FD207A1F4D1CAC35
S1133F90C3B22900402220000493FCF745FB29000A
S1133FA02CAF402240313800FCF73EFB0F23102099
S1133FB01E406B46185605220023C117FCF78EFFDE
S1133FC00023134AB6008018594132590023FCF7E4
S1133FD085FF0B140C040399020C2243FF20CC032D
S1133FE00121002516E0C046620000208C0000205C
S1133FF06000002020670000A08601005C00002013
S11340000006FFFFC4000020350C000074650000AA
S11340103C0500000006494224184D41F059002196
S1134020A4185D41FCF75AFFCE05420A32436008EA
S1134030EE074B12304369108018594122002B00BF
S1134040FCF708FF4D4B029A1860002A00D18FE05C
S113405000204B4900F072F93DB0F0BD029B002BEB
S113406007D0099B049A00934649059B00F063FB23
S113407087E61000FEF760F90022434BFDF740F895
S11340800F000600FEF722F90500FEF755F90200BD
S11340900B0030003900FDF787FD00223A4BFDF795
S11340A017FBFEF713F92A0003003849029800F0C1
S11340B042FB66E61A68002A00DBB4E60022B1E699
S11340C0029B002B05D03B00049A314900F033FBDE
S11340D0B8E61000FEF730F900222E4BFDF710F879
S11340E00D000400FEF7F2F80600FEF725F90200C1
S11340F00B0020002900FDF757FD0022254BFDF79A
S1134100E7FAFEF7E3F83200030023490298DDE7FB
S11341104000FCF7B3FDEAE6029B002B07D0059BA9
S1134120049A00931749230000F005FB17E71000D9
S1134130FEF702F90022174BFCF7E2FF0D00040022
S1134140FEF7C4F80600FEF7F7F802000B002000A3
S11341502900FDF729FD00220E4BFDF7B9FAFEF701
S1134160B5F8320003000D49029800F0E4FAF6E6CF
S11341701A680B49029800F0DEFA6DE75800002037
S11341809167000027670000000059403E67000067
S11341902E67000000408F40586700007B670000D6
S11341A0CC6700000369C268934201D880681B1879
S11341B0013B981A7047F7B58368C46801931F1BC5
S11341C0436805000E001819A418974207D83A004E
S11341D0FCF72AFA019B6868E41A2200F119FCF73B
S11341E023FAEC60F7BD0023F7B506001700C56895
S11341F0019100933369B4689D421FD2013B5B1B5C
S1134200641BBC4200D93C009C4200D91C0073686A
S1134210220058190199FCF707FA009B2D191B1964
S11342200093019B3F1B1B190193B368AB4200D160
S11342300025F560002FDDD10098FEBD1B19DDE7D8
S1134240022310B50F4C104A236163610F4BA26126
S1134250E361C823A2640E4A2362E26400230422B9
S1134260A3626362E362A3656365E365226509494A
S1134270E01DFCF74FFB20000749FCF74BFB202314
S1134280A37110BD04010020E96700008001002033
S11342907C010020F2670000F6670000F8B5160004
S11342A01822451C55434243164B0F005D199B18B9
S11342B0DC6A012C10D0022C1BD0002C1FD128004A
S11342C0FFF770FF864205D8320039002800FFF757
S11342D072FF34002000F8BD2800FFF763FF3400AC
S11342E0864200D90400220039002800FFF763FF4A
S11342F0F0E732002800FFF776FF0400EAE7002425
S1134300E8E7C04604010020F8B50B4B04001B7815
S11343100E001700002B01D1FFF792FFEFF3108579
S1134320012181F310883A0031002000FFF7B6FF25
S113433085F31088F8BDC0460401002070B505005F
S113434008000C00FCF7EEFA210002002800FFF739
S1134350DBFF70BDF7B5164C0193237805000F0001
S11343601600002B01D1FFF76BFF2369AB421CD968
S1134370EFF31082012181F31088002D0CD0182353
S1134380691C59436B43675061184E600199E318E7
S1134390196200219962596218204543089B6419E7
S11343A0E36282F310880020FEBD01204042FBE757
S11343B004010020826810B504004068531C834245
S11343C005D820688154A360E3680133E360A268E0
S11343D063689A4209D121682069FFF795FFA368B1
S11343E0984203D001235B42E36010BD0023A36025
S11343F0FBE70000F0B5050017000800012685B0B2
S11344000A9C02910093B84219D2009A01969642EE
S113441000D2019201230B9A1A4003920B9A1A427A
S113442002D1002C10D10024EB680126002B4BDBB9
S1134430009B012B1FD9013B00937E43F8E7390011
S1134440FCF792FB0136DEE70B9B20269B0704D585
S1134450009B1036002B00D0103E019BA342E3D2F8
S113446031002800FFF7A6FFEB68013C002BDBDBE3
S1134470002CF2D1D7E731000298FCF775FB874294
S1134480DBD902983100FCF7F5FB114B0291195C62
S11344902800FFF78FFFEB68002B05DB39003000A5
S11344A0FCF762FBBE4211D2039B002B0CD0002C04
S11344B00AD0019BA34207D220212800FFF77AFFEC
S11344C0EB68013C002BF2DA05B0F0BD0600D8E73A
S11344D0FD670000F0B59FB00EAB099340230A932B
S11344E000230E00150007900B930D900C93317868
S11344F00136002907D10C9B0393002B00DD09E151
S11345000C981FB0F0BD252900D0B3E00027082285
S1134510042006E0302B0DD1022300E001231F43C9
S11345200E003378711C2D2BF8D0F3D8232B10D028
S11345302B2B0CD000240A213378721C180030383D
S1134540092808D84C43303C16001C19F4E70743EB
S1134550E6E71743E4E7002103912E2B0ED1160062
S11345600A203278711C1300303B092B06D8039BB8
S11345700E004343303BD3180393F2E7042331780E
S11345800A0001369A43682A01D13178F8E778297C
S113459009D86F290BD8632967D017D8252969D082
S11345A0582900D195E00C9B002BA0DAA3E77039C1
S11345B008000829F7D8FCF7C3FAA500F6FFF6FFB0
S11345C09400F6FF8300F6FFF6FF8C006429EAD11D
S11345D02B681A1D1B682A60DA17981804930123A4
S11345E050400593092849DC039B059A069393429E
S11345F000D20692002C05D0049B002B01DB7B0724
S113460000D5013C02231F4202D0039B002B05D09E
S113461001231F4202D1002C36D100240C9B0593A8
S1134620002BC0DB049B002B3ADA2D215B42049360
S113463009A8FFF7BFFE0C9B002BB4DB03233B4010
S1134640022B05D1039B002B02D1002C2CD100247A
S11346500C9B0593002BA6DB0A22039B049901976C
S1134660009409A8FFF7C6FE9DE72B6819681A1D78
S11346702A60C9B209A8FFF79DFE94E70A21FCF756
S1134680FDFA059B0133ACE7069BA342C6D2202169
S113469009A8FFF78FFE0C9B013C002BBBDABDE79A
S11346A07B07C8D52B21C3E7069BA342D0D2302178
S11346B009A8FFF77FFE0C9B013C002BC5DAC7E776
S11346C00A22296801970B1D2B60039B009409683B
S11346D0C7E7296801970B1D2B60039B00941022E8
S11346E0F5E72B681A1D2A601C682178013400291B
S11346F000D158E709A8FFF75DFE0C9B0393002B3C
S1134700F3DA50E729680B1D2B600023019308336B
S11347100093E4E70B9A002A03D007980EA9FFF749
S1134720F3FD0C9B03930B9B0493049A039B944605
S113473063440C93E4E60EB403B503AB02CB01AAC5
S11347400193FFF7C7FE02B008BC03B0184710B5C9
S1134750002000F04BFD10BD10B5002001F090FBCF
S113476010BD0000082310B5164A9178194202D0F2
S113477091780B439370882100222220124B490127
S11347805A501249124C0870802012494002585065
S11347901968114801401960195910480840C0218E
S11347A089040143195180210D4B1A7219767F39FE
S11347B01A7059700B490A700C3299791142FCD164
S11347C010BDC04600D007400070044000E0074020
S11347D00410000044100000FFFFF3FFFFFFFFF090
S11347E000400640005006401249134810B581426B
S11347F005D00022114B9B089B009A420FD1104B0D
S1134800104A9960002310491048521A9A420AD15A
S113481000210F4B0F4AD21A013A08D210BD845816
S11348208C500432E9E7CC5CC4540133EEE71970D0
S11348300133F1E700000000000000000000000068
S113484000ED00E0046B00006469000000FEFF1F3F
S1134850A0FFFF1FE4020020030041700020187035
S113486058609860704710B5437804000120FF2B0E
S113487008D000F033FA63780133DBB2637000F0E0
S113488021FA002010BD70B504000D0000F026FAD6
S1134890E1682943E16000F015FA002070BD0000D2
S11348A000220A4B9A641A0040329A631A0030328A
S11348B09A621A0020329A611A0010329A60044AED
S11348C01360044B9B60DB607047C0464C020020C1
S11348D0480200209C0200200022024B1A60186843
S11348E080B270470C007C5070B5437804000D0012
S11348F0002B0BD0002500F0F1F96378013BDBB20B
S11349006370257000F0DEF9280070BD02200029D4
S1134910FBD02378002B17D0FFF7DEFF6368A26873
S1134920834204D8C01A824206D30320EDE7C01A9A
S113493080235B02C018F6E700F0D0F9002323704F
S113494000F0C0F90220E0E74B1CEED000F0C6F9FD
S11349500123237000F0B6F9FFF7BEFFA560606085
S1134960E3E770B50500FFF7B7FF80260400760281
S1134970FFF7B2FF0300844203D8031B9D42F7D222
S113498070BD301BC318F9E710B5012801D100F040
S1134990A5F910BD10B5012801D100F093F910BD9F
S11349A010B5FFF77DFF01230020084A0849136072
S11349B0084A094C1060086004212160074C2160FA
S11349C007490B6007490860136010BD3880045024
S11349D000008450000004500000045104000451FD
S11349E004000C500000045310B5044C20602171E5
S11349F00020A2602373637310BDC046AC02002084
S1134A000422F0B587B005AC3B4E019002912070B2
S1134A10617033790092834226D90022337B1500DA
S1134A20737301230092A3700393334F3B7BAB4218
S1134A301DD8009B002B02D0029B012B48D10120E2
S1134A40FFF7A2FF0C20019B002558433368181878
S1134A5000F0B0F8019B012073710226FFF79AFF62
S1134A60A6703B7BAB421AD8009807B0F0BDBA6879
S1134A70AB009B58002B0FD01A7903990A420BD034
S1134A8020001A6899689047002805D0029B7D731E
S1134A90002B1BD0052300930135EDB2C5E7BA689E
S1134AA0AB009B58002B0ED01A7932420BD0200059
S1134AB01A6899689047002805D0029B7D73002BE3
S1134AC017D0062300930135EDB2CAE705230093FE
S1134AD00023A370013DEDB2FF2DC5D0064BAA0003
S1134AE09B68D358002BF5D020001A68996890472A
S1134AF0F0E706230093B7E7AC020020014B587996
S1134B007047C046AC02002013B504000020217891
S1134B100190022920D0032922D0012925D122790C
S1134B2001AB144800F07CFF002814D1A3795A1E6D
S1134B309341114ADB01137063785A1E93410F4A63
S1134B405B001370A2780E4B1A70E2780D4B1A704A
S1134B5062790D4B1A7016BD0100227901ABE0E7B2
S1134B6001A9044800F09EFFDEE701A9014800F016
S1134B703BFFD9E70040064018408653004086506A
S1134B80004006500140065018401650F821084ACB
S1134B9043099B009B180905C2050A401343802260
S1134BA0520513431F2210401E3A82401A60704778
S1134BB028800440072373B5009300230400104D9C
S1134BC01A000121280001F04DF92000FFF79CFF95
S1134BD0637A280000930023217A1A0001F042F935
S1134BE0E379084A9B041360074BA17A1D682800E7
S1134BF000F074FF2800E17A00F077FF002076BD12
S1134C000070044000700C595C68000010B5054841
S1134C1000F0AAFE044B1968C9B20131FBF7A4FFE6
S1134C2010BDC0460040064044801C5E10B5FFF72E
S1134C30EDFF10BD10B5054800F096FE044B196851
S1134C40C9B20131FBF790FF10BDC04600400640D9
S1134C504480145810B5FFF7EDFF10BD0B4B1B68D3
S1134C60DBB2022B0CD0032B0DD00020834206D1E3
S1134C70074A106880221202904200D01800704740
S1134C80044B1868FBE7FA208000F8E700700C5921
S1134C90D4020020D802002010B5FFF7DFFF10BDBA
S1134CA010B5024B185CFFF771FF10BD0D680000D2
S1134CB010B57620FFF76AFF10BD10B56620FFF728
S1134CC065FF10BD044A1368002B04D0013B136038
S1134CD0002B00D162B67047BC02002072B6024AB3
S1134CE01368013313607047BC02002010B5064CF2
S1134CF0064801F025FB042801D1002010BD013C29
S1134D00002CF5D10320F9E7EA03000000E0074096
S1134D1010B50B4B0B490A78002A07D0084C0A48F7
S1134D2001F00EFB012806D1002003E0013B002B1B
S1134D30F1D1032010BD013C002CF0D1F9E7C046AD
S1134D40EA03000002D0075100E00740F7B507006E
S1134D500E00150001200193002F15D0002913D057
S1134D60FFF712FE094C102200212000FBF7B0FCD3
S1134D7027602671002D03D0019BA5602373637304
S1134D800120FFF707FE0020FEBDC046C002002040
S1134D90F0B5B14C8DB002900391237B0120637375
S1134DA0FFF7F2FD2379029A934206D80120FFF718
S1134DB0F1FD022738000DB0F0BD029A236892007D
S1134DC0D35809AC1D780193039B2A002372029BDC
S1134DD02370019B636002239A430492012A01D049
S1134DE0052D0AD101219D4801F0FEF9002807D1C3
S1134DF00120FFF7CFFD0127DCE70321072DF2D8BF
S1134E000123002763723C000593934E337BA34236
S1134E102AD80120FFF7BEFD914800F0C9FD049B8C
S1134E20012B4AD10138022835D9039B012B00D02C
S1134E300DE106270120FFF7A7FD0023012609AD98
S1134E406B72013CE4B2FF2C00D1AFE0824BA200B4
S1134E509B68D358002BF4D01A793242F1D0280041
S1134E601A6899689047ECE7B268A3009B58002B36
S1134E700ED01A7905990A420AD01A68996809A8C5
S1134E809047002804D0039B04277473012BC0D1DE
S1134E900134E4B2B9E7FFF7DDFE724B9842C4D89F
S1134EA0FFF7B4FE704EB042BFD8FFF7C3FEB04266
S1134EB0BBD8FFF7BBFEB042B7D8039B012B00D091
S1134EC0C1E00A2D00D9BCE02800FBF72FFE060A3A
S1134ED00D1E879A7B822F737800002207AB1A700D
S1134EE02DE0032207ABFAE75C4801F029FA012818
S1134EF008D00021594801F087F9FFF709FF071E80
S1134F0000D057E7012207ABE9E7544801F018FA4B
S1134F10042808D00221514801F076F9FFF7E6FE93
S1134F20071E00D046E7042207ABD8E7072207ABE9
S1134F301A80019AD2789A70019A1279DA702B0049
S1134F40083B022B06D8019B06AA5B799372019B4E
S1134F509B79D372019B5B78002B0AD0012D08D971
S1134F60019B02229978414B00294DD019690A43CB
S1134F701A613A4807A901F06BF9002800D0032709
S1134F80002D45D1FFF7C4FE071E00D012E700270D
S1134F900120FFF7F9FC029B2F4D0024AB73022381
S1134FA009AE737201932B7BA34236D80120FFF71D
S1134FB0F1FCFFE6082207ABFF321A80BFE72C4A58
S1134FC007ABFAE7022207AB1A700222FF329A807B
S1134FD0B5E7022207AB1A70264AF8E7022207ABAC
S1134FE01A70013A1D489A8001F0AAF90128A6D046
S1134FF000211A4801F008F9FFF78AFE071E9ED027
S1135000D8E6052207AB6AE7196991431961B0E74D
S1135010012DBDD1FFF76AFEB6E7AA68A3009B582D
S1135020002B0BD01A7901990A4207D030001A6874
S113503099689047002801D005276C730134E4B2C5
S1135040B1E70327B6E6002F00D13AE7F2E6002FD6
S113505000D0EFE6EDE6C046C002002000E00740C5
S11350600040064040420F0080841E0000ED00E036
S1135070070300000102000010B5064801F060F9C2
S113508003000020012B03D00B30042B00D10A387D
S113509010BDC04600E00740F7B5FF2403681D4A71
S11350A01E0A26401C40B3009F581B4A05009B580B
S11350B030000193FFF7F4FD00222100380001F0D5
S11350C047F9019BA400E41884232A795B05234350
S11350D052001A6080236A795B0523431A60902387
S11350E0AA795B05234312011A600C4B1C43EB792C
S11350F01B042360EB79002B0AD0094B9B57002B30
S113510006D01F2213401E3A9A401300054A13602A
S1135110F7BDC04660680000686800000000181809
S11351207068000000E100E0F8B5FF2405000368A2
S1135130114A180A20401C4083009F580F4A9E5869
S1135140FFF7AEFD38002100012201F001F96A6881
S11351502100380001F00BF988232A7AA400A4194D
S11351605B05234392001A6098235B051C436B7A0A
S11351709B012360F8BDC0466068000068680000B9
S113518070B50C00002807D1002C0FD170BD0500AC
S11351900835FFF781FF280003680133F7D1F3E7EF
S11351A0250020000C35FFF7BFFF2C0023680133D6
S11351B0F6D1EBE7FF22030A044913409B00595838
S11351C00123104083404B607047C0466068000074
S11351D0FF22030A044913409B005958012310403D
S11351E083408B607047C04660680000084B8200B3
S11351F0D258942310B502325B0513431B78002B5D
S113520002D000F019FA10BD00F06CFAFBE7C046BA
S113521010680000020080230C325B0513431A78E7
S1135220002AFCD00171704770B50D00084B800056
S1135230C458200029001830FFF756FB0328F8D083
S1135240002801D004232374207CC0B270BDC04662
S1135250D002002010B5104B8000C458E37C002B12
S113526005D0237C052B02D0237C042B0BD10B4BC4
S113527018589823821C5B05134300221A7001F00E
S1135280E5F801236374A37C002B03D020001830BD
S1135290FFF7E9FA10BDC046D002002010680000F4
S11352A0F0B51700002289B005930EAB1B780500FA
S11352B00393830032481E5832481C5807AB1A80A7
S11352C0A37C880A04930223FF3363828B0A01932D
S11352D0CBB21E2801D11A000B0A5B00D8B2019B85
S11352E000211E2B05D08F4203D1012303995B1AA1
S11352F059B20143CBB202930299019807AB1970DA
S113530001211E2801D15A704918A3603000E160C0
S11353100299FFF77FFF28000F99FFF785FF237C91
S1135320002B0CD1002F0AD0059BA760E36030004E
S11353303978FFF76FFF28000F99FFF775FF237C7B
S1135340039A1A4314D1019B1E2B01D0002F0FD0B6
S1135350002301273000A360E76001F065F802999B
S113536030003943FFF756FF28000F99FFF75CFF21
S11353700023207CE374049BC0B2A37409B0F0BD85
S113538010680000D0020020F7B583000193184B89
S11353908200D75805000C000126002F26D1154B9A
S11353A03900D358200024220193FBF791F92000FF
S11353B039001830FFF750FA2800FFF77EFC0198F7
S11353C000F0DDFF0A4BAA00D4501F220A4B5B5D9C
S11353D0134032009A40094B1A609C22019B5205EB
S11353E002331343802266743E001A703000FEBDFF
S11353F0D0020020106800001468000000E100E002
S11354000A4B800070B5C5584B686A690C0093421A
S11354100BD0074BC658FFF70DFC00230100626850
S1135420300000F0BBFF63686B6170BDD0020020E8
S113543010680000F0B587B004920593334A0FABAF
S11354401E7883009C580391627C0700002A03D1D4
S11354500320207407B0F0BD002E01D11E220E924D
S11354602B4A3800D55800230399E360A3602374C2
S113547023606374A674FFF7C3FF90231021AA1C52
S11354805B05134319708423E91C5B050B4302215C
S1135490197098235B05134302934023029A280052
S11354A0137000F0C1FF039B380019880E9B049A07
S11354B0019301230093059BFFF7F2FE0D9B002B44
S11354C017D0237C002B11D10C9B2800A3600D9BCB
S11354D0E3600C9B1978FFF79DFE002E03D0380083
S11354E00E99FFF7A1FE207CC0B2B3E7237C042B06
S11354F0F9D100230126029A1370EB785B09334239
S113550002D0280000F0A2FF6674ECE7D00200206D
S113551010680000F0B589B0079311AB1B780692B0
S1135520364A029383009C580591627C0600002A47
S113553003D10320207409B0F0BD029A002A01D1DE
S11355401E32109200272E4A0599D5580E9B300022
S113555023600F9BA7606360029BE760A3742774BA
S11355606774FFF74DFF9023AA1C5B051A431023B1
S11355701370842304925B05EA1C134302221A70FD
S11355809823AA185B051A4340232800137003923A
S113559000F04AFF059B069A1988109B300001937E
S11355A00097079BFFF77CFE237CDAB2BB4215D140
S11355B0049BA91C1A708C235B050B430F990129CA
S11355C000D108221A702B79029B002B03D03000E3
S11355D01099FFF729FE207CC0B2ACE7237C042B92
S11355E0F9D10126039B1F70EB785B09334202D08B
S11355F0280000F02BFF6674EDE7C046D0020020BF
S1135600106800001FB501240394089C0294079CB1
S11356100194069C0094FFF70DFF04B010BD1FB564
S113562001240394089C0294079C0194069C009412
S1135630FFF770FF04B010BD244B70B58400E5582B
S11356408423EA1C5B05134302221A709023A918D1
S11356505B050B431B78EA78DBB292061DD59422D6
S113566052050A431278002A17D0194AA458012B6C
S113567014D1EA781A4204D004332374FFF7EAFD04
S11356800BE0E368013BE360002BF7D0A36828003C
S11356905A1CA2605978FFF7BDFD70BD6268013ADB
S11356A06260002A06D08C235B05012A0AD00022FE
S11356B00B4309E0FFF7CEFD23685A1C22602A79C8
S11356C01A70EAE708220B431A70F5E71068000025
S11356D0D0020020C31C8420400518430223037019
S11356E0704700000122F0B5904B8100CD5889B07D
S11356F0EB1C0193EB7890261B091A4005920122BA
S1135700EB7876059B091A4002923200AB1D1A43CE
S1135710944612780090D2B20792942252051A430A
S11357201278AF1CD0B20390982040050343187838
S1135730C0B206907E480C58310039430191097873
S1135740C9B20491002A35D0079A002A0ED010233A
S1135750624628001370FFF7BDFF236B002B52D065
S11357606A4601211078626B98474CE0069A002A39
S113577020D0402228001A70FFF7ACFF23002C33FE
S11357801B78002B03D19822520517433B70236BDF
S1135790002B04D06A4680211078626B9847E37D21
S11357A0002B04D0200080211830FFF76CF80A2366
S11357B0237028E02800FFF78DFF059B002B24D0E1
S11357C0EB1C1E4310233370029B002B10D0EB788C
S11357D05B07DA0F002B48DB019B1A70236B002B4D
S11357E004D06A4604211078626B98472B790AE04A
S11357F0082323702C342378002B04D198235B05D1
S11358001F43029B3B7009B0F0BD029B002BDED10D
S1135810049B012B54D1EB78049A134230D0019BA2
S1135820029A1A702B7923002C331B78002B07D192
S1135830039B002B04D198235B051F43039B3B7000
S1135840236B002B04D06A4608211078626B9847BA
S1135850A37D002B04D0200008211830FFF713F893
S113586000236360E3602375CDE71023019A13706E
S1135870236B002B04D06A4602211078626B984790
S11358806368002B50D028008022E3680C30520556
S11358901978024310780028FCD029710133E360A1
S11358A06368013B63606368002BACD1E3602375DC
S11358B0236B002BA7D06A4610211078626B53E744
S11358C02B79A268DBB2002A2CD0226913702369D9
S11358D001332361A368013BA360A368002B00D0BC
S11358E091E7039B002B11D123002C331B78002B51
S11358F004D198235B051F43039B3B70E37D002B7E
S113590004D0200020211830FEF7BDFF002363756A
S11359102361236B002B00D175E76A4620211078A0
S1135920626B21E7072343E7062341E71068000081
S1135930D002002084225205024312780300D0B220
S1135940002A0CD080200133400503431878013825
S113595043425841024B40421840024BC018704722
S1135960808D5B0080841E0010B50D4B821D134397
S11359701A780400D3B2002A0FD0012B07D1FFF705
S1135980D9FF084B08341C432378D84010BD0020AD
S1135990022BFBD1044B1868F8E70448F6E7C0462D
S11359A00000081100009010D4020020006CDC02FA
S11359B00C4A811D0A4312780300D0B2012A04D094
S11359C002280BD000280BD17047802201335205E6
S11359D013431B78002BF7D10220F5E70320F3E7EC
S11359E00520F1E70000081102009C2318325B0532
S11359F0134380221A700022064B03431A70064B8D
S1135A00063018430378DAB2002BFBD1034B1000A5
S1135A100B6070470000081300000811006CDC02E2
S1135A20F8B504000D0016001F00FFF7C1FF0128A0
S1135A3023D1002D25D08023621C5B0513431D70E8
S1135A40842302225B0523431A702200104B083280
S1135A5013437200D2B21A7040220E4B0E482343F5
S1135A6006341A7004432378012BFCD1002D0DD188
S1135A700A4B334100203B60F8BD0228DBD1012DE5
S1135A80D9D139002000FFF7AFFFD4E7044BF0E78A
S1135A9000009010000008130000081180841E000C
S1135AA000127A0010B50A4C030022680120002A73
S1135AB00CD0084A7F301A4310700748063303435A
S1135AC01A78022AFCD1002023680B6010BDC0465E
S1135AD0D402002000000813000008119C23C9010F
S1135AE05B050343C9B219707047942349015B05F0
S1135AF00343C9B21970704770B506680C003000D2
S1135B002049FBF731F81F4905003000FBF7B2F8D4
S1135B100E00E12130000901FBF726F8E121E080C5
S1135B2009013000FBF7A6F80E003C213000FBF71A
S1135B301BF83C2120813000FBF79CF86E22A172F7
S1135B400321114BFF322380238895420AD80F4941
S1135B509B0700D10E490123CA5CAA420CD363807F
S1135B60A58070BD01339BB223800B40AD1A5A420D
S1135B705A416E32FF32E7E70133AD1A0D2BEBD1F8
S1135B80EEE7C04680510100B20700003C68000007
S1135B90156800000188114A03008A18002030B5F6
S1135BA0812A17D85A88541E0B2C13D89C88651E3A
S1135BB01E2D0FD8DD88172D0CD81D893B2D09D833
S1135BC09B7A3B2B06D88B0705D0054B9B5CA342E5
S1135BD04041C0B230BD034BF8E7C0464EF8FFFF6A
S1135BE03C6800001568000070B5134D8388028876
S1135BF05B196E25FF35554344885B1995085B197D
S1135C000E4D6600755B5B19920710D00B600A6835
S1135C100B4BC4885343827A00899B18E1221201FA
S1135C2062439B183C2242439B180B6070BD022CBC
S1135C30ECD8013BEAE7C0464A05F5FF22680000BC
S1135C40805101008023084A1B0212689A4209D13C
S1135C50A02310305B0518430368002B02D10133E5
S1135C60FF3303607047C046D40200200100802245
S1135C7010B5002301245205103111430C600B6050
S1135C8090214360490504601C3001430B60882166
S1135C90490501430B6084214905014310430B600E
S1135CA0036010BD0200902314325B0513430022ED
S1135CB01A604260103201601A60704703680B601A
S1135CC070470000104B820070B5D5588022040044
S1135CD00E4B92051A602800FFF7C8FF2800FFF753
S1135CE0B1FF0B4B1F261A5D0123180009493240EE
S1135CF0095DC025314090408B40074A6D005051EA
S1135D0053511060136070BD4C6800003C80845E89
S1135D10506800005168000000E100E0F7B500277A
S1135D20114B8000C55808000E000197FFF732FFA1
S1135D300400B84216D001A93000FFF755FF38001F
S1135D40FEF7AAFF010080200002814206D0FAF784
S1135D500BFF01000198FAF707FF01902800019951
S1135D60FFF7A0FF2000FEBD4C680000F7B500253A
S1135D70124B8000C4580E00200001A90195FFF7C2
S1135D809DFF2800FEF788FF050080200002854261
S1135D900ED00B4B290004341C43FAF7E5FE2768A8
S1135DA0019C29004443B8B2FAF7DEFE241801949A
S1135DB0310001A8FFF7A0FEF7BDC0464C68000003
S1135DC000007810F0B50027184B800085B0C55846
S1135DD008000E0001920397FFF7DCFE0400B842AE
S1135DE003D10024200005B0F0BD300003A9FFF763
S1135DF0FBFE38002E68FEF74FFF010080200002F2
S1135E00814206D0FAF7B0FE01000398FAF7ACFE1F
S1135E100390039BB342E4D3AB6088231C355B053A
S1135E201D43019B9A002A60DCE7C0464C680000D1
S1135E30044B8000C25888231C325B05134389003D
S1135E40196070474C680000054B8000C2588823D5
S1135E5014325B0513431868431E9841C0B270475F
S1135E604C6800006B46E0221B78D2021B041340EE
S1135E70024A09070B43801803607047441000006E
S1135E80084B8200D258902310B503325B051343AC
S1135E901B78002B02D000F0EFF810BD00F054F98D
S1135EA0FBE7C046546800009C210C4B0C4A800060
S1135EB0C3588258002003324905114310B51871A4
S1135EC00870942149050A4310701A7F824203D056
S1135ED020331800FEF7C7FC10BDC046DC020020CA
S1135EE054680000F7B50C0005001B4B302200215C
S1135EF087002000FE58FAF7EBFB2800FEF7D8FED7
S1135F00FEF798FE2060300000F0C1FA2000002166
S1135F102030FEF7A1FCF31C01939023F21C5B05D7
S1135F201343102230001A70032100F0EEFA3000FF
S1135F30002100F00FFB094BFC50094B5A5D1F2355
S1135F401A401E3B9340074A13609823019A5B054D
S1135F50134340221A70F7BD54680000DC0200208D
S1135F605868000000E100E00A4B800070B5C65894
S1135F70094B0C00C358150030001A68096800F07A
S1135F808DFA2860A37930006279217900F0CFFA84
S1135F9070BDC04654680000DC020020F7B51E4AFC
S1135FA083009C58050022790420002A16D11B4A3C
S1135FB09E58002903D0280001AAFFF7D5FF982393
S1135FC000214020F21C5B051343197018702769E7
S1135FD08F4204D12800FFF767FF0020FEBD012394
S1135FE0237194235B05A16133431B780720002BA5
S1135FF0F4D0A368191E02D019780133A360B171DB
S11360002369013B2361A3690133A3619C235B05DD
S11360101A4380231370E0E7DC0200205468000078
